{
  "contractName": "RepToken",
  "abi": [
    {
      "inputs": [],
      "stateMutability": "nonpayable",
      "type": "constructor"
    },
    {
      "anonymous": false,
      "inputs": [
        {
          "indexed": true,
          "internalType": "bytes32",
          "name": "id",
          "type": "bytes32"
        }
      ],
      "name": "ChainlinkCancelled",
      "type": "event"
    },
    {
      "anonymous": false,
      "inputs": [
        {
          "indexed": true,
          "internalType": "bytes32",
          "name": "id",
          "type": "bytes32"
        }
      ],
      "name": "ChainlinkFulfilled",
      "type": "event"
    },
    {
      "anonymous": false,
      "inputs": [
        {
          "indexed": true,
          "internalType": "bytes32",
          "name": "id",
          "type": "bytes32"
        }
      ],
      "name": "ChainlinkRequested",
      "type": "event"
    },
    {
      "anonymous": false,
      "inputs": [
        {
          "indexed": false,
          "internalType": "address",
          "name": "predictor",
          "type": "address"
        },
        {
          "indexed": false,
          "internalType": "string",
          "name": "symbol",
          "type": "string"
        },
        {
          "indexed": false,
          "internalType": "string",
          "name": "date",
          "type": "string"
        },
        {
          "indexed": false,
          "internalType": "uint256",
          "name": "price",
          "type": "uint256"
        }
      ],
      "name": "PredictionAdded",
      "type": "event"
    },
    {
      "anonymous": false,
      "inputs": [
        {
          "indexed": true,
          "internalType": "address",
          "name": "from",
          "type": "address"
        },
        {
          "indexed": false,
          "internalType": "uint256",
          "name": "totalSupply",
          "type": "uint256"
        }
      ],
      "name": "RepTokensBurned",
      "type": "event"
    },
    {
      "anonymous": false,
      "inputs": [
        {
          "indexed": true,
          "internalType": "address",
          "name": "to",
          "type": "address"
        },
        {
          "indexed": false,
          "internalType": "uint256",
          "name": "totalSupply",
          "type": "uint256"
        }
      ],
      "name": "RepTokensMinted",
      "type": "event"
    },
    {
      "inputs": [
        {
          "internalType": "address",
          "name": "",
          "type": "address"
        }
      ],
      "name": "balances_",
      "outputs": [
        {
          "internalType": "uint256",
          "name": "",
          "type": "uint256"
        }
      ],
      "stateMutability": "view",
      "type": "function",
      "constant": true
    },
    {
      "inputs": [
        {
          "internalType": "uint256",
          "name": "",
          "type": "uint256"
        }
      ],
      "name": "ids",
      "outputs": [
        {
          "internalType": "bytes32",
          "name": "",
          "type": "bytes32"
        }
      ],
      "stateMutability": "view",
      "type": "function",
      "constant": true
    },
    {
      "inputs": [],
      "name": "name",
      "outputs": [
        {
          "internalType": "string",
          "name": "",
          "type": "string"
        }
      ],
      "stateMutability": "view",
      "type": "function",
      "constant": true
    },
    {
      "inputs": [],
      "name": "owner",
      "outputs": [
        {
          "internalType": "address payable",
          "name": "",
          "type": "address"
        }
      ],
      "stateMutability": "view",
      "type": "function",
      "constant": true
    },
    {
      "inputs": [
        {
          "internalType": "address",
          "name": "",
          "type": "address"
        },
        {
          "internalType": "uint256",
          "name": "",
          "type": "uint256"
        }
      ],
      "name": "predictions",
      "outputs": [
        {
          "internalType": "address",
          "name": "predictor",
          "type": "address"
        },
        {
          "internalType": "string",
          "name": "symbol",
          "type": "string"
        },
        {
          "internalType": "string",
          "name": "date",
          "type": "string"
        },
        {
          "internalType": "uint256",
          "name": "unixDate",
          "type": "uint256"
        },
        {
          "internalType": "uint256",
          "name": "price",
          "type": "uint256"
        }
      ],
      "stateMutability": "view",
      "type": "function",
      "constant": true
    },
    {
      "inputs": [
        {
          "internalType": "bytes32",
          "name": "",
          "type": "bytes32"
        }
      ],
      "name": "requestMapping",
      "outputs": [
        {
          "internalType": "address",
          "name": "predictor",
          "type": "address"
        },
        {
          "internalType": "string",
          "name": "symbol",
          "type": "string"
        },
        {
          "internalType": "string",
          "name": "date",
          "type": "string"
        },
        {
          "internalType": "uint256",
          "name": "unixDate",
          "type": "uint256"
        },
        {
          "internalType": "uint256",
          "name": "price",
          "type": "uint256"
        }
      ],
      "stateMutability": "view",
      "type": "function",
      "constant": true
    },
    {
      "inputs": [],
      "name": "symbol",
      "outputs": [
        {
          "internalType": "string",
          "name": "",
          "type": "string"
        }
      ],
      "stateMutability": "view",
      "type": "function",
      "constant": true
    },
    {
      "inputs": [],
      "name": "totalSupply_",
      "outputs": [
        {
          "internalType": "uint256",
          "name": "",
          "type": "uint256"
        }
      ],
      "stateMutability": "view",
      "type": "function",
      "constant": true
    },
    {
      "inputs": [],
      "name": "volume",
      "outputs": [
        {
          "internalType": "uint256",
          "name": "",
          "type": "uint256"
        }
      ],
      "stateMutability": "view",
      "type": "function",
      "constant": true
    },
    {
      "inputs": [
        {
          "internalType": "string",
          "name": "_symbol",
          "type": "string"
        },
        {
          "internalType": "string",
          "name": "_date",
          "type": "string"
        },
        {
          "internalType": "uint256",
          "name": "_unixDate",
          "type": "uint256"
        },
        {
          "internalType": "uint256",
          "name": "_price",
          "type": "uint256"
        }
      ],
      "name": "addPrediction",
      "outputs": [],
      "stateMutability": "nonpayable",
      "type": "function"
    },
    {
      "inputs": [
        {
          "internalType": "address",
          "name": "_predictor",
          "type": "address"
        }
      ],
      "name": "getPredictions",
      "outputs": [
        {
          "components": [
            {
              "internalType": "address",
              "name": "predictor",
              "type": "address"
            },
            {
              "internalType": "string",
              "name": "symbol",
              "type": "string"
            },
            {
              "internalType": "string",
              "name": "date",
              "type": "string"
            },
            {
              "internalType": "uint256",
              "name": "unixDate",
              "type": "uint256"
            },
            {
              "internalType": "uint256",
              "name": "price",
              "type": "uint256"
            }
          ],
          "internalType": "struct RepToken.Prediction[]",
          "name": "",
          "type": "tuple[]"
        }
      ],
      "stateMutability": "view",
      "type": "function",
      "constant": true
    },
    {
      "inputs": [
        {
          "internalType": "address",
          "name": "_predictor",
          "type": "address"
        }
      ],
      "name": "evaluatePredictions",
      "outputs": [],
      "stateMutability": "nonpayable",
      "type": "function"
    },
    {
      "inputs": [
        {
          "internalType": "bytes32",
          "name": "_requestId",
          "type": "bytes32"
        },
        {
          "internalType": "bytes32",
          "name": "_close",
          "type": "bytes32"
        }
      ],
      "name": "fulfillEvaluation",
      "outputs": [],
      "stateMutability": "nonpayable",
      "type": "function"
    },
    {
      "inputs": [],
      "name": "kill",
      "outputs": [],
      "stateMutability": "nonpayable",
      "type": "function"
    },
    {
      "inputs": [],
      "name": "withdrawLink",
      "outputs": [],
      "stateMutability": "nonpayable",
      "type": "function"
    }
  ],
  "bytecode": "0x608060405260016004553480156200001657600080fd5b5033600660006101000a81548173ffffffffffffffffffffffffffffffffffffffff021916908373ffffffffffffffffffffffffffffffffffffffff16021790555062000068620000f860201b60201c565b733a56ae4a2831c3d3514b5d7af5578e45ebdb7a40600960006101000a81548173ffffffffffffffffffffffffffffffffffffffff021916908373ffffffffffffffffffffffffffffffffffffffff1602179055507f3138376262383065356565373461313339373334636163373437356633633665600a81905550662386f26fc10000600b8190555062000275565b6200019e73c89bd4e1632d3a43cb03aaad5262cbe4038bc57173ffffffffffffffffffffffffffffffffffffffff166338cc48316040518163ffffffff1660e01b815260040160206040518083038186803b1580156200015757600080fd5b505afa1580156200016c573d6000803e3d6000fd5b505050506040513d601f19601f82011682018060405250620001929190810190620001fb565b620001a060201b60201c565b565b80600260006101000a81548173ffffffffffffffffffffffffffffffffffffffff021916908373ffffffffffffffffffffffffffffffffffffffff16021790555050565b600081519050620001f5816200025b565b92915050565b6000602082840312156200020e57600080fd5b60006200021e84828501620001e4565b91505092915050565b600062000234826200023b565b9050919050565b600073ffffffffffffffffffffffffffffffffffffffff82169050919050565b620002668162000227565b81146200027257600080fd5b50565b6137a080620002856000396000f3fe608060405234801561001057600080fd5b50600436106100f45760003560e01c8063850fa7cb11610097578063a114f2b111610066578063a114f2b11461023d578063b799bb0f14610271578063c618a1e4146102a1578063fac333ac146102bf576100f4565b8063850fa7cb146101c35780638da5cb5b146101f75780638dc654a21461021557806395d89b411461021f576100f4565b806341c0e1b5116100d357806341c0e1b5146101515780636b41823b1461015b5780636ca34ea214610177578063737bebc3146101a7576100f4565b8062081ee9146100f957806306fdde0314610115578063324536eb14610133575b600080fd5b610113600480360361010e919081019061284b565b6102ef565b005b61011d610636565b60405161012a9190613376565b60405180910390f35b61013b61066f565b60405161014891906134d8565b60405180910390f35b610159610675565b005b6101756004803603610170919081019061280f565b610740565b005b610191600480360361018c9190810190612758565b610a55565b60405161019e91906134d8565b60405180910390f35b6101c160048036036101bc9190810190612758565b610a6d565b005b6101dd60048036036101d89190810190612781565b610fbf565b6040516101ee959493929190613215565b60405180910390f35b6101ff61115f565b60405161020c919061317a565b60405180910390f35b61021d611185565b005b6102276112e8565b6040516102349190613376565b60405180910390f35b610257600480360361025291908101906127e6565b611321565b604051610268959493929190613215565b60405180910390f35b61028b60048036036102869190810190612758565b6114a7565b6040516102989190613339565b60405180910390f35b6102a96116f3565b6040516102b691906134d8565b60405180910390f35b6102d960048036036102d491908101906128e6565b6116f9565b6040516102e6919061335b565b60405180910390f35b6009610319601861030b610e108661171a90919063ffffffff16565b61177090919063ffffffff16565b1015801561034f5750601161034c601861033e610e108661171a90919063ffffffff16565b61177090919063ffffffff16565b11155b61038e576040517f08c379a000000000000000000000000000000000000000000000000000000000815260040161038590613478565b60405180910390fd5b60116103b860186103aa610e108661171a90919063ffffffff16565b61177090919063ffffffff16565b141561042957601e6103e7603c6103d9603c8661171a90919063ffffffff16565b61177090919063ffffffff16565b1115610428576040517f08c379a000000000000000000000000000000000000000000000000000000000815260040161041f90613478565b60405180910390fd5b5b600e60003373ffffffffffffffffffffffffffffffffffffffff1673ffffffffffffffffffffffffffffffffffffffff1681526020019081526020016000206040518060a001604052803373ffffffffffffffffffffffffffffffffffffffff16815260200188888080601f016020809104026020016040519081016040528093929190818152602001838380828437600081840152601f19601f82011690508083019250505050505050815260200186868080601f016020809104026020016040519081016040528093929190818152602001838380828437600081840152601f19601f82011690508083019250505050505050815260200184815260200183815250908060018154018082558091505060019003906000526020600020906005020160009091909190915060008201518160000160006101000a81548173ffffffffffffffffffffffffffffffffffffffff021916908373ffffffffffffffffffffffffffffffffffffffff16021790555060208201518160010190805190602001906105b9929190612490565b5060408201518160020190805190602001906105d6929190612490565b50606082015181600301556080820151816004015550507fe09d480fe031782dddce53913da187382ae23107d0a7bde243dc573b27e8218633878787878660405161062696959493929190613195565b60405180910390a1505050505050565b6040518060400160405280600981526020017f52455020546f6b656e000000000000000000000000000000000000000000000081525081565b60075481565b600660009054906101000a900473ffffffffffffffffffffffffffffffffffffffff1673ffffffffffffffffffffffffffffffffffffffff163373ffffffffffffffffffffffffffffffffffffffff1614610705576040517f08c379a00000000000000000000000000000000000000000000000000000000081526004016106fc90613438565b60405180910390fd5b600660009054906101000a900473ffffffffffffffffffffffffffffffffffffffff1673ffffffffffffffffffffffffffffffffffffffff16ff5b816005600082815260200190815260200160002060009054906101000a900473ffffffffffffffffffffffffffffffffffffffff1673ffffffffffffffffffffffffffffffffffffffff163373ffffffffffffffffffffffffffffffffffffffff16146107e2576040517f08c379a00000000000000000000000000000000000000000000000000000000081526004016107d9906134b8565b60405180910390fd5b6005600082815260200190815260200160002060006101000a81549073ffffffffffffffffffffffffffffffffffffffff0219169055807f7cc135e0cebb02c3480ae5d74d377283180a2601f8f644edf7987b009316c63a60405160405180910390a260008090505b60208160ff161080156108965750600060f81b838260ff166020811061086d57fe5b1a60f81b7effffffffffffffffffffffffffffffffffffffffffffffffffffffffffffff191614155b156108a857808060010191505061084b565b60608160ff166040519080825280601f01601f1916602001820160405280156108e05781602001600182028038833980820191505090505b509050600091505b60208260ff161080156109335750600060f81b848360ff166020811061090a57fe5b1a60f81b7effffffffffffffffffffffffffffffffffffffffffffffffffffffffffffff191614155b1561099657838260ff166020811061094757fe5b1a60f81b818360ff168151811061095a57fe5b60200101907effffffffffffffffffffffffffffffffffffffffffffffffffffffffffffff1916908160001a90535081806001019250506108e8565b60006109a38260056117c6565b90508060088190555080600f60008881526020019081526020016000206004015411610a0d57610a08600f600088815260200190815260200160002060000160009054906101000a900473ffffffffffffffffffffffffffffffffffffffff166118e6565b610a4d565b610a4c600f600088815260200190815260200160002060000160009054906101000a900473ffffffffffffffffffffffffffffffffffffffff166119eb565b5b505050505050565b600d6020528060005260406000206000915090505481565b3373ffffffffffffffffffffffffffffffffffffffff168173ffffffffffffffffffffffffffffffffffffffff1614610adb576040517f08c379a0000000000000000000000000000000000000000000000000000000008152600401610ad290613498565b60405180910390fd5b6000600e60008373ffffffffffffffffffffffffffffffffffffffff1673ffffffffffffffffffffffffffffffffffffffff1681526020019081526020016000208054905090505b6000811115610fbb5742600e60008473ffffffffffffffffffffffffffffffffffffffff1673ffffffffffffffffffffffffffffffffffffffff1681526020019081526020016000206001830381548110610b7a57fe5b9060005260206000209060050201600301541115610b9757610fad565b6000610d8f600e60008573ffffffffffffffffffffffffffffffffffffffff1673ffffffffffffffffffffffffffffffffffffffff1681526020019081526020016000206001840381548110610be957fe5b90600052602060002090600502016001018054600181600116156101000203166002900480601f016020809104026020016040519081016040528092919081815260200182805460018160011615610100020316600290048015610c8e5780601f10610c6357610100808354040283529160200191610c8e565b820191906000526020600020905b815481529060010190602001808311610c7157829003601f168201915b5050505050600e60008673ffffffffffffffffffffffffffffffffffffffff1673ffffffffffffffffffffffffffffffffffffffff1681526020019081526020016000206001850381548110610ce057fe5b90600052602060002090600502016002018054600181600116156101000203166002900480601f016020809104026020016040519081016040528092919081815260200182805460018160011615610100020316600290048015610d855780601f10610d5a57610100808354040283529160200191610d85565b820191906000526020600020905b815481529060010190602001808311610d6857829003601f168201915b5050505050611af0565b9050600e60008473ffffffffffffffffffffffffffffffffffffffff1673ffffffffffffffffffffffffffffffffffffffff1681526020019081526020016000206001830381548110610dde57fe5b9060005260206000209060050201600f60008381526020019081526020016000206000820160009054906101000a900473ffffffffffffffffffffffffffffffffffffffff168160000160006101000a81548173ffffffffffffffffffffffffffffffffffffffff021916908373ffffffffffffffffffffffffffffffffffffffff16021790555060018201816001019080546001816001161561010002031660029004610e8d929190612510565b5060028201816002019080546001816001161561010002031660029004610eb5929190612510565b506003820154816003015560048201548160040155905050600c819080600181540180825580915050600190039060005260206000200160009091909190915055600e60008473ffffffffffffffffffffffffffffffffffffffff1673ffffffffffffffffffffffffffffffffffffffff1681526020019081526020016000206001830381548110610f4357fe5b9060005260206000209060050201600080820160006101000a81549073ffffffffffffffffffffffffffffffffffffffff0219169055600182016000610f899190612597565b600282016000610f999190612597565b600382016000905560048201600090555050505b808060019003915050610b23565b5050565b600e6020528160005260406000208181548110610fd857fe5b9060005260206000209060050201600091509150508060000160009054906101000a900473ffffffffffffffffffffffffffffffffffffffff1690806001018054600181600116156101000203166002900480601f0160208091040260200160405190810160405280929190818152602001828054600181600116156101000203166002900480156110ab5780601f10611080576101008083540402835291602001916110ab565b820191906000526020600020905b81548152906001019060200180831161108e57829003601f168201915b505050505090806002018054600181600116156101000203166002900480601f0160208091040260200160405190810160405280929190818152602001828054600181600116156101000203166002900480156111495780601f1061111e57610100808354040283529160200191611149565b820191906000526020600020905b81548152906001019060200180831161112c57829003601f168201915b5050505050908060030154908060040154905085565b600660009054906101000a900473ffffffffffffffffffffffffffffffffffffffff1681565b600061118f611c34565b90508073ffffffffffffffffffffffffffffffffffffffff1663a9059cbb338373ffffffffffffffffffffffffffffffffffffffff166370a08231306040518263ffffffff1660e01b81526004016111e7919061315f565b60206040518083038186803b1580156111ff57600080fd5b505afa158015611213573d6000803e3d6000fd5b505050506040513d601f19601f82011682018060405250611237919081019061290f565b6040518363ffffffff1660e01b81526004016112549291906131ec565b602060405180830381600087803b15801561126e57600080fd5b505af1158015611282573d6000803e3d6000fd5b505050506040513d601f19601f820116820180604052506112a691908101906127bd565b6112e5576040517f08c379a00000000000000000000000000000000000000000000000000000000081526004016112dc90613458565b60405180910390fd5b50565b6040518060400160405280600381526020017f524550000000000000000000000000000000000000000000000000000000000081525081565b600f6020528060005260406000206000915090508060000160009054906101000a900473ffffffffffffffffffffffffffffffffffffffff1690806001018054600181600116156101000203166002900480601f0160208091040260200160405190810160405280929190818152602001828054600181600116156101000203166002900480156113f35780601f106113c8576101008083540402835291602001916113f3565b820191906000526020600020905b8154815290600101906020018083116113d657829003601f168201915b505050505090806002018054600181600116156101000203166002900480601f0160208091040260200160405190810160405280929190818152602001828054600181600116156101000203166002900480156114915780601f1061146657610100808354040283529160200191611491565b820191906000526020600020905b81548152906001019060200180831161147457829003601f168201915b5050505050908060030154908060040154905085565b6060600e60008373ffffffffffffffffffffffffffffffffffffffff1673ffffffffffffffffffffffffffffffffffffffff168152602001908152602001600020805480602002602001604051908101604052809291908181526020016000905b828210156116e857838290600052602060002090600502016040518060a00160405290816000820160009054906101000a900473ffffffffffffffffffffffffffffffffffffffff1673ffffffffffffffffffffffffffffffffffffffff1673ffffffffffffffffffffffffffffffffffffffff168152602001600182018054600181600116156101000203166002900480601f01602080910402602001604051908101604052809291908181526020018280546001816001161561010002031660029004801561161a5780601f106115ef5761010080835404028352916020019161161a565b820191906000526020600020905b8154815290600101906020018083116115fd57829003601f168201915b50505050508152602001600282018054600181600116156101000203166002900480601f0160208091040260200160405190810160405280929190818152602001828054600181600116156101000203166002900480156116bc5780601f10611691576101008083540402835291602001916116bc565b820191906000526020600020905b81548152906001019060200180831161169f57829003601f168201915b505050505081526020016003820154815260200160048201548152505081526020019060010190611508565b505050509050919050565b60085481565b600c818154811061170657fe5b906000526020600020016000915090505481565b600080821161175e576040517f08c379a0000000000000000000000000000000000000000000000000000000008152600401611755906133f8565b60405180910390fd5b81838161176757fe5b04905092915050565b60008082116117b4576040517f08c379a00000000000000000000000000000000000000000000000000000000081526004016117ab90613418565b60405180910390fd5b8183816117bd57fe5b06905092915050565b6000808210156117d557600080fd5b60608390506000809050600080905060008090505b83518110156118c757603084828151811061180157fe5b602001015160f81c60f81b60f81c60ff161015801561183d5750603984828151811061182957fe5b602001015160f81c60f81b60f81c60ff1611155b1561188f578115611860576000861415611856576118c7565b8580600190039650505b600a83029250603084828151811061187457fe5b602001015160f81c60f81b60f81c0360ff16830192506118ba565b602e84828151811061189d57fe5b602001015160f81c60f81b60f81c60ff1614156118b957600191505b5b80806001019150506117ea565b5060008511156118da5784600a0a820291505b81935050505092915050565b6118fc6001600754611c5e90919063ffffffff16565b6007819055506119556001600d60008473ffffffffffffffffffffffffffffffffffffffff1673ffffffffffffffffffffffffffffffffffffffff16815260200190815260200160002054611c5e90919063ffffffff16565b600d60008373ffffffffffffffffffffffffffffffffffffffff1673ffffffffffffffffffffffffffffffffffffffff168152602001908152602001600020819055503373ffffffffffffffffffffffffffffffffffffffff167f279ce4cc698df822fba0ca64cb072e78b16df25f0fc671306b97b43c6fdbb5a46007546040516119e091906134d8565b60405180910390a250565b611a016001600754611cb390919063ffffffff16565b600781905550611a5a6001600d60008473ffffffffffffffffffffffffffffffffffffffff1673ffffffffffffffffffffffffffffffffffffffff16815260200190815260200160002054611cb390919063ffffffff16565b600d60008373ffffffffffffffffffffffffffffffffffffffff1673ffffffffffffffffffffffffffffffffffffffff168152602001908152602001600020819055503373ffffffffffffffffffffffffffffffffffffffff167fda3e9d60c695325e98231c79f6f7e2086f80f38b997348ea66b85be5543086cb600754604051611ae591906134d8565b60405180910390a250565b6000611afa6125df565b611b0e600a5430636b41823b60e01b611d03565b9050611b7d6040518060400160405280600381526020017f6765740000000000000000000000000000000000000000000000000000000000815250858586604051602001611b5e93929190613102565b60405160208183030381529060405283611d349092919063ffffffff16565b611bfc6040518060400160405280600481526020017f70617468000000000000000000000000000000000000000000000000000000008152506040518060400160405280600e81526020017f76616c7565732e302e636c6f736500000000000000000000000000000000000081525083611d349092919063ffffffff16565b611c2b600960009054906101000a900473ffffffffffffffffffffffffffffffffffffffff1682600b54611d67565b91505092915050565b6000600260009054906101000a900473ffffffffffffffffffffffffffffffffffffffff16905090565b600080828401905083811015611ca9576040517f08c379a0000000000000000000000000000000000000000000000000000000008152600401611ca090613398565b60405180910390fd5b8091505092915050565b600082821115611cf8576040517f08c379a0000000000000000000000000000000000000000000000000000000008152600401611cef906133d8565b60405180910390fd5b818303905092915050565b611d0b6125df565b611d136125df565b611d2a85858584611f34909392919063ffffffff16565b9150509392505050565b611d4b828460800151611fe490919063ffffffff16565b611d62818460800151611fe490919063ffffffff16565b505050565b600030600454604051602001611d7e9291906130d6565b604051602081830303815290604052805190602001209050600454836060018181525050836005600083815260200190815260200160002060006101000a81548173ffffffffffffffffffffffffffffffffffffffff021916908373ffffffffffffffffffffffffffffffffffffffff160217905550807fb5e6e01e79f91267dc17b4e6314d5d4d03593d2ceee0fbb452b750bd70ea5af960405160405180910390a2600260009054906101000a900473ffffffffffffffffffffffffffffffffffffffff1673ffffffffffffffffffffffffffffffffffffffff16634000aea08584611e6a87612009565b6040518463ffffffff1660e01b8152600401611e88939291906132fb565b602060405180830381600087803b158015611ea257600080fd5b505af1158015611eb6573d6000803e3d6000fd5b505050506040513d601f19601f82011682018060405250611eda91908101906127bd565b611f19576040517f08c379a0000000000000000000000000000000000000000000000000000000008152600401611f10906133b8565b60405180910390fd5b60016004600082825401925050819055508090509392505050565b611f3c6125df565b611f4c85608001516101006120eb565b508385600001818152505082856020019073ffffffffffffffffffffffffffffffffffffffff16908173ffffffffffffffffffffffffffffffffffffffff16815250508185604001907bffffffffffffffffffffffffffffffffffffffffffffffffffffffff191690817bffffffffffffffffffffffffffffffffffffffffffffffffffffffff191681525050849050949350505050565b611ff1826003835161213f565b612004818361228490919063ffffffff16565b505050565b6060600360009054906101000a900473ffffffffffffffffffffffffffffffffffffffff1673ffffffffffffffffffffffffffffffffffffffff166340429946905060e01b60008084600001518560200151866040015187606001516001896080015160000151604051602401612087989796959493929190613276565b604051602081830303815290604052907bffffffffffffffffffffffffffffffffffffffffffffffffffffffff19166020820180517bffffffffffffffffffffffffffffffffffffffffffffffffffffffff83818316178352505050509050919050565b6120f361264c565b6000602083816120ff57fe5b0614612118576020828161210f57fe5b06602003820191505b81836020018181525050604051808452600081528281016020016040525082905092915050565b6017811161216c576121668160058460ff16901b60ff1617846122a690919063ffffffff16565b5061227f565b60ff81116121ae57612191601860058460ff16901b17846122a690919063ffffffff16565b506121a8816001856122c69092919063ffffffff16565b5061227e565b61ffff81116121f1576121d4601960058460ff16901b17846122a690919063ffffffff16565b506121eb816002856122c69092919063ffffffff16565b5061227d565b63ffffffff811161223657612219601a60058460ff16901b17846122a690919063ffffffff16565b50612230816004856122c69092919063ffffffff16565b5061227c565b67ffffffffffffffff811161227b57612262601b60058460ff16901b17846122a690919063ffffffff16565b50612279816008856122c69092919063ffffffff16565b505b5b5b5b5b505050565b61228c61264c565b61229e838460000151518485516122e8565b905092915050565b6122ae61264c565b6122be83846000015151846123a1565b905092915050565b6122ce61264c565b6122df8485600001515185856123ef565b90509392505050565b6122f061264c565b82518211156122fe57600080fd5b84602001518285011115612329576123288560026123228860200151888701612450565b0261246c565b5b6000808651805187602083010193508088870111156123485787860182525b60208701925050505b602084106123745780518252602082019150602081019050602084039350612351565b60006001856020036101000a03905080198251168184511681811785525050879350505050949350505050565b6123a961264c565b836020015183106123c6576123c584600286602001510261246c565b5b83518051602085830101848153818614156123e2576001820183525b5050508390509392505050565b6123f761264c565b84602001518483011115612415576124148560028685010261246c565b5b60006001836101000a03905085518386820101858319825116178152815185880111156124425784870182525b505085915050949350505050565b60008183111561246257829050612466565b8190505b92915050565b60608260000151905061247f83836120eb565b5061248a8382612284565b50505050565b828054600181600116156101000203166002900490600052602060002090601f016020900481019282601f106124d157805160ff19168380011785556124ff565b828001600101855582156124ff579182015b828111156124fe5782518255916020019190600101906124e3565b5b50905061250c9190612666565b5090565b828054600181600116156101000203166002900490600052602060002090601f016020900481019282601f106125495780548555612586565b8280016001018555821561258657600052602060002091601f016020900482015b8281111561258557825482559160010191906001019061256a565b5b5090506125939190612666565b5090565b50805460018160011615610100020316600290046000825580601f106125bd57506125dc565b601f0160209004906000526020600020908101906125db9190612666565b5b50565b6040518060a0016040528060008019168152602001600073ffffffffffffffffffffffffffffffffffffffff16815260200160007bffffffffffffffffffffffffffffffffffffffffffffffffffffffff191681526020016000815260200161264661268b565b81525090565b604051806040016040528060608152602001600081525090565b61268891905b8082111561268457600081600090555060010161266c565b5090565b90565b604051806040016040528060608152602001600081525090565b6000813590506126b48161370e565b92915050565b6000815190506126c981613725565b92915050565b6000813590506126de8161373c565b92915050565b60008083601f8401126126f657600080fd5b8235905067ffffffffffffffff81111561270f57600080fd5b60208301915083600182028301111561272757600080fd5b9250929050565b60008135905061273d81613753565b92915050565b60008151905061275281613753565b92915050565b60006020828403121561276a57600080fd5b6000612778848285016126a5565b91505092915050565b6000806040838503121561279457600080fd5b60006127a2858286016126a5565b92505060206127b38582860161272e565b9150509250929050565b6000602082840312156127cf57600080fd5b60006127dd848285016126ba565b91505092915050565b6000602082840312156127f857600080fd5b6000612806848285016126cf565b91505092915050565b6000806040838503121561282257600080fd5b6000612830858286016126cf565b9250506020612841858286016126cf565b9150509250929050565b6000806000806000806080878903121561286457600080fd5b600087013567ffffffffffffffff81111561287e57600080fd5b61288a89828a016126e4565b9650965050602087013567ffffffffffffffff8111156128a957600080fd5b6128b589828a016126e4565b945094505060406128c889828a0161272e565b92505060606128d989828a0161272e565b9150509295509295509295565b6000602082840312156128f857600080fd5b60006129068482850161272e565b91505092915050565b60006020828403121561292157600080fd5b600061292f84828501612743565b91505092915050565b60006129448383613024565b905092915050565b61295581613626565b82525050565b612964816135a8565b82525050565b61297381613596565b82525050565b61298281613596565b82525050565b600061299382613503565b61299d8185613547565b9350836020820285016129af856134f3565b8060005b858110156129eb57848403895281516129cc8582612938565b94506129d78361353a565b925060208a019950506001810190506129b3565b50829750879550505050505092915050565b612a06816135c6565b82525050565b612a15816135d0565b82525050565b6000612a2682613519565b612a308185613558565b9350612a4081856020860161368f565b612a49816136f0565b840191505092915050565b6000612a5f8261350e565b612a698185613558565b9350612a7981856020860161368f565b612a82816136f0565b840191505092915050565b612a9e612a9982613638565b6136c2565b82525050565b6000612ab0838561357a565b9350612abd838584613680565b612ac6836136f0565b840190509392505050565b6000612adc8261352f565b612ae6818561358b565b9350612af681856020860161368f565b80840191505092915050565b6000612b0d82613524565b612b178185613569565b9350612b2781856020860161368f565b612b30816136f0565b840191505092915050565b6000612b4682613524565b612b50818561357a565b9350612b6081856020860161368f565b612b69816136f0565b840191505092915050565b6000612b81601b8361357a565b91507f536166654d6174683a206164646974696f6e206f766572666c6f7700000000006000830152602082019050919050565b6000612bc160238361357a565b91507f756e61626c6520746f207472616e73666572416e6443616c6c20746f206f726160008301527f636c6500000000000000000000000000000000000000000000000000000000006020830152604082019050919050565b6000612c27601e8361357a565b91507f536166654d6174683a207375627472616374696f6e206f766572666c6f7700006000830152602082019050919050565b6000612c67601a8361357a565b91507f536166654d6174683a206469766973696f6e206279207a65726f0000000000006000830152602082019050919050565b6000612ca7600a8361358b565b91507f26656e645f646174653d000000000000000000000000000000000000000000006000830152600a82019050919050565b6000612ce760188361357a565b91507f536166654d6174683a206d6f64756c6f206279207a65726f00000000000000006000830152602082019050919050565b6000612d2760358361357a565b91507f4f6e6c792074686520636f6e7472616374206f776e65722063616e206b696c6c60008301527f2074686520636f6e74726163742c20736f7272792e00000000000000000000006020830152604082019050919050565b6000612d8d60128361357a565b91507f556e61626c6520746f207472616e7366657200000000000000000000000000006000830152602082019050919050565b6000612dcd60438361357a565b91507f44617465206973206e6f742077697468696e206f70656e696e6720616e64206360008301527f6c6f73696e6720686f757273206f662058657472612073746f636b206d61726b60208301527f65742100000000000000000000000000000000000000000000000000000000006040830152606082019050919050565b6000612e59603f8361357a565b91507f596f7520617265206e6f742074686520707265646963746f72206f7220796f7560008301527f2063757272656e746c792068617665206e6f2070726564696374696f6e7321006020830152604082019050919050565b6000612ebf602e8361358b565b91507f68747470733a2f2f6170692e7477656c7665646174612e636f6d2f74696d655f60008301527f7365726965733f73796d626f6c3d0000000000000000000000000000000000006020830152602e82019050919050565b6000612f25601a8361358b565b91507f2665786368616e67653d584554522673746172745f646174653d0000000000006000830152601a82019050919050565b6000612f6560288361357a565b91507f536f75726365206d75737420626520746865206f7261636c65206f662074686560008301527f20726571756573740000000000000000000000000000000000000000000000006020830152604082019050919050565b6000612fcb60368361358b565b91507f26696e74657276616c3d316d696e266170696b65793d6438663037326235623560008301527f33313464323962373163316666383037636634313039000000000000000000006020830152603682019050919050565b600060a08301600083015161303c600086018261296a565b50602083015184820360208601526130548282612b02565b9150506040830151848203604086015261306e8282612b02565b915050606083015161308360608601826130a1565b50608083015161309660808601826130a1565b508091505092915050565b6130aa8161361c565b82525050565b6130b98161361c565b82525050565b6130d06130cb8261361c565b6136e6565b82525050565b60006130e28285612a8d565b6014820191506130f282846130bf565b6020820191508190509392505050565b600061310d82612eb2565b91506131198286612ad1565b915061312482612f18565b91506131308285612ad1565b915061313b82612c9a565b91506131478284612ad1565b915061315282612fbe565b9150819050949350505050565b60006020820190506131746000830184612979565b92915050565b600060208201905061318f600083018461295b565b92915050565b60006080820190506131aa600083018961294c565b81810360208301526131bd818789612aa4565b905081810360408301526131d2818587612aa4565b90506131e160608301846130b0565b979650505050505050565b6000604082019050613201600083018561294c565b61320e60208301846130b0565b9392505050565b600060a08201905061322a6000830188612979565b818103602083015261323c8187612b3b565b905081810360408301526132508186612b3b565b905061325f60608301856130b0565b61326c60808301846130b0565b9695505050505050565b60006101008201905061328c600083018b612979565b613299602083018a6130b0565b6132a660408301896129fd565b6132b36060830188612979565b6132c06080830187612a0c565b6132cd60a08301866130b0565b6132da60c08301856130b0565b81810360e08301526132ec8184612a54565b90509998505050505050505050565b60006060820190506133106000830186612979565b61331d60208301856130b0565b818103604083015261332f8184612a1b565b9050949350505050565b600060208201905081810360008301526133538184612988565b905092915050565b600060208201905061337060008301846129fd565b92915050565b600060208201905081810360008301526133908184612b3b565b905092915050565b600060208201905081810360008301526133b181612b74565b9050919050565b600060208201905081810360008301526133d181612bb4565b9050919050565b600060208201905081810360008301526133f181612c1a565b9050919050565b6000602082019050818103600083015261341181612c5a565b9050919050565b6000602082019050818103600083015261343181612cda565b9050919050565b6000602082019050818103600083015261345181612d1a565b9050919050565b6000602082019050818103600083015261347181612d80565b9050919050565b6000602082019050818103600083015261349181612dc0565b9050919050565b600060208201905081810360008301526134b181612e4c565b9050919050565b600060208201905081810360008301526134d181612f58565b9050919050565b60006020820190506134ed60008301846130b0565b92915050565b6000819050602082019050919050565b600081519050919050565b600081519050919050565b600081519050919050565b600081519050919050565b600081519050919050565b6000602082019050919050565b600082825260208201905092915050565b600082825260208201905092915050565b600082825260208201905092915050565b600082825260208201905092915050565b600081905092915050565b60006135a1826135fc565b9050919050565b60006135b3826135fc565b9050919050565b60008115159050919050565b6000819050919050565b60007fffffffff0000000000000000000000000000000000000000000000000000000082169050919050565b600073ffffffffffffffffffffffffffffffffffffffff82169050919050565b6000819050919050565b60006136318261365c565b9050919050565b60006136438261364a565b9050919050565b6000613655826135fc565b9050919050565b60006136678261366e565b9050919050565b6000613679826135fc565b9050919050565b82818337600083830152505050565b60005b838110156136ad578082015181840152602081019050613692565b838111156136bc576000848401525b50505050565b60006136cd826136d4565b9050919050565b60006136df82613701565b9050919050565b6000819050919050565b6000601f19601f8301169050919050565b60008160601b9050919050565b61371781613596565b811461372257600080fd5b50565b61372e816135ba565b811461373957600080fd5b50565b613745816135c6565b811461375057600080fd5b50565b61375c8161361c565b811461376757600080fd5b5056fea264697066735822122022bec5fd65af52ed9aafb0decdaa7970a521c626443b1918181fb218ea18c6f764736f6c63430006000033",
  "source": "pragma experimental ABIEncoderV2;\npragma solidity >=0.6.0;\n\nimport \"@chainlink/contracts/src/v0.6/ChainlinkClient.sol\";\nimport \"@openzeppelin/contracts/math/SafeMath.sol\";\n\ncontract RepToken is ChainlinkClient {\n    using SafeMath for uint256;\n\n    address payable public owner;\n    string public constant symbol = \"REP\";\n    string public constant name = \"REP Token\";\n    uint256 public totalSupply_;\n    uint256 public volume;\n    address private oracle;\n    bytes32 private jobId;\n    uint256 private fee;\n    bytes32[] public ids;\n\n    constructor() public {\n        owner = payable(msg.sender);\n        setPublicChainlinkToken();\n        oracle = 0x3A56aE4a2831C3d3514b5D7Af5578E45eBDb7a40;\n        jobId = \"187bb80e5ee74a139734cac7475f3c6e\";\n        fee = 0.01 * 10**18; // 0.1 LINK\n    }\n\n    struct Prediction {\n        address predictor;\n        string symbol;\n        string date;\n        uint256 unixDate;\n        uint256 price;\n    }\n\n    mapping(address => uint256) public balances_;\n    mapping(address => Prediction[]) public predictions;\n    mapping(bytes32 => Prediction) public requestMapping;\n\n    event PredictionAdded(\n        address predictor,\n        string symbol,\n        string date,\n        uint256 price\n    );\n\n    event RepTokensMinted(address indexed to, uint256 totalSupply);\n\n    event RepTokensBurned(address indexed from, uint256 totalSupply);\n\n    function addPrediction(\n        string calldata _symbol,\n        string calldata _date,\n        uint256 _unixDate,\n        uint256 _price\n    ) external {\n        require(\n            _unixDate.div(3600).mod(24) >= 9 &&\n                _unixDate.div(3600).mod(24) <= 17,\n            \"Date is not within opening and closing hours of Xetra stock market!\"\n        );\n        if (_unixDate.div(3600).mod(24) == 17) {\n            require(\n                _unixDate.div(60).mod(60) <= 30,\n                \"Date is not within opening and closing hours of Xetra stock market!\"\n            );\n        }\n        predictions[msg.sender].push(\n            Prediction(msg.sender, _symbol, _date, _unixDate, _price)\n        );\n        emit PredictionAdded(msg.sender, _symbol, _date, _price);\n    }\n\n    function getPredictions(address _predictor)\n        external\n        view\n        returns (Prediction[] memory)\n    {\n        return predictions[_predictor];\n    }\n\n    function evaluatePredictions(address _predictor) external {\n        require(\n            _predictor == msg.sender,\n            \"You are not the predictor or you currently have no predictions!\"\n        );\n        for (uint256 i = predictions[_predictor].length; i > 0; i--) {\n            if (predictions[_predictor][i - 1].unixDate > block.timestamp) {\n                continue;\n            } else {\n                bytes32 requestId =\n                    requestStockPrice(\n                        predictions[_predictor][i - 1].symbol,\n                        predictions[_predictor][i - 1].date\n                    );\n                requestMapping[requestId] = predictions[_predictor][i - 1];\n                ids.push(requestId);\n                delete predictions[_predictor][i - 1];\n            }\n        }\n        // for (uint256 i = 0; i < predictions[_predictor].length; i++) {\n        //     bytes32 requestId =\n        //         requestStockPrice(\n        //             predictions[_predictor][i].symbol,\n        //             predictions[_predictor][i].date\n        //         );\n        //     ids.push(requestId);\n        //     requestMapping[requestId] = predictions[_predictor][i];\n        // }\n    }\n\n    function requestStockPrice(string memory _symbol, string memory _date)\n        private\n        returns (bytes32 requestId)\n    {\n        Chainlink.Request memory request =\n            buildChainlinkRequest(\n                jobId,\n                address(this),\n                this.fulfillEvaluation.selector\n            );\n        request.add(\n            \"get\",\n            string(\n                abi.encodePacked(\n                    \"https://api.twelvedata.com/time_series?symbol=\",\n                    _symbol,\n                    \"&exchange=XETR&start_date=\",\n                    _date,\n                    \"&end_date=\",\n                    _date,\n                    \"&interval=1min&apikey=d8f072b5b5314d29b71c1ff807cf4109\"\n                )\n            )\n        );\n        request.add(\"path\", \"values.0.close\");\n\n        return sendChainlinkRequestTo(oracle, request, fee);\n    }\n\n    function parseInt(string memory _a, uint256 _b)\n        private\n        pure\n        returns (uint256)\n    {\n        require(_b >= 0);\n        bytes memory bresult = bytes(_a);\n        uint256 mintt = 0;\n        bool decimals = false;\n        for (uint256 i = 0; i < bresult.length; i++) {\n            if ((uint8(bresult[i]) >= 48) && (uint8(bresult[i]) <= 57)) {\n                if (decimals) {\n                    if (_b == 0) break;\n                    else _b--;\n                }\n                mintt *= 10;\n                mintt += uint8(bresult[i]) - 48;\n            } else if (uint8(bresult[i]) == 46) decimals = true;\n        }\n        if (_b > 0) mintt *= 10**_b;\n        return mintt;\n    }\n\n    function mint(address _predictor) private {\n        totalSupply_ = totalSupply_.add(1);\n        balances_[_predictor] = balances_[_predictor].add(1);\n        emit RepTokensMinted(msg.sender, totalSupply_);\n    }\n\n    function burn(address _predictor) private {\n        totalSupply_ = totalSupply_.sub(1);\n        balances_[_predictor] = balances_[_predictor].sub(1);\n        emit RepTokensBurned(msg.sender, totalSupply_);\n    }\n\n    function fulfillEvaluation(bytes32 _requestId, bytes32 _close)\n        public\n        recordChainlinkFulfillment(_requestId)\n    {\n        uint8 i = 0;\n        while (i < 32 && _close[i] != 0) {\n            i++;\n        }\n        bytes memory bytesArray = new bytes(i);\n        for (i = 0; i < 32 && _close[i] != 0; i++) {\n            bytesArray[i] = _close[i];\n        }\n        uint256 close = parseInt(string(bytesArray), 5);\n        volume = close;\n        if (requestMapping[_requestId].price <= close) {\n            mint(requestMapping[_requestId].predictor);\n        } else {\n            burn(requestMapping[_requestId].predictor);\n        }\n    }\n\n    function kill() public {\n        require(\n            msg.sender == owner,\n            \"Only the contract owner can kill the contract, sorry.\"\n        );\n        selfdestruct(owner);\n    }\n\n    function withdrawLink() external {\n        LinkTokenInterface linkToken =\n            LinkTokenInterface(chainlinkTokenAddress());\n        require(\n            linkToken.transfer(msg.sender, linkToken.balanceOf(address(this))),\n            \"Unable to transfer\"\n        );\n    }\n}\n",
  "sourcePath": "/Users/kevinhertwig/uni/module/SS21/BLKCHN/src/contracts/RepToken.sol",
  "compiler": {
    "name": "solc",
    "version": "0.6.0+commit.26b70077.Emscripten.clang"
  },
  "schemaVersion": "3.4.1",
  "updatedAt": "2021-06-20T03:22:12.032Z",
  "networkType": "ethereum",
  "devdoc": {
    "methods": {}
  },
  "userdoc": {
    "methods": {}
  }
}